:060000000A128A1100291A
:10000800F000030EF1000B180E20710E8300F00EA5
:10001800700E090003138312061C850A861C8503CB
:040028000B100800B1
:1002000007211F212C2126210313831206290317FE
:1002100083168801890103138316061486140510BA
:10022000851005118511031383168113031383169B
:100230001514951403138312850186010800031316
:1002400083160F140F178F160F1208000313831253
:100250008B178B150B1008000313831616149614B6
:0A0260000313831206080B100800B8
:04400E00C430FF3F7C
:00000001FF
